:020000040800F2
:1000000000000320492D0008ED280008EF28000813
:10001000F1280008F3280008F52800080000000077
:10002000000000000000000000000000F7280008A9
:10003000F928000800000000FB280008FD2800083F
:10004000992D0008992D0008992D0008992D000878
:10005000992D0008992D0008992D0008992D000868
:10006000992D0008992D0008992D0008992D000858
:10007000992D000805290008992D00081529000868
:10008000992D0008992D0008992D0008992D000838
:10009000992D0008992D0008992D000825290008A0
:1000A000992D0008992D0008992D0008992D000818
:1000B000992D0008992D000831290008992D000874
:1000C000992D0008992D0008992D0008992D0008F8
:1000D000992D0008992D0008992D0008992D0008E8
:1000E000992D0008992D0008992D0008992D0008D8
:1000F000992D0008992D0008992D0008992D0008C8
:10010000992D0008992D0008992D0008992D0008B7
:1001100041290008992D0008992D0008992D000803
:10012000992D0008992D0008992D0008992D000897
:10013000992D0008992D0008992D0008992D000887
:10014000992D0008992D0008992D0008992D000877
:10015000992D0008992D0008992D0008992D000867
:10016000992D0008992D0008992D0008992D000857
:10017000992D0008992D0008992D00080000000015
:10018000992D0008992D0008992D0008992D000837
:10019000992D0008992D0008992D0008992D000827
:0C01A0000000000000000000992D000885
:1001AC0010B5054C237833B9044B13B10448AFF3A5
:1001BC0000800123237010BD3C04002000000000CF
:1001CC001832000808B5034B1BB103490348AFF3C1
:1001DC00008008BD00000000400400201832000818
:1001EC0053B94AB9002908BF00281CBF4FF0FF3192
:1001FC004FF0FF3000F074B9ADF1080C6DE904CE8E
:10020C0000F006F8DDF804E0DDE9022304B07047E5
:10021C002DE9F047089E0D4604468846002B4DD12B
:10022C008A42944668D9B2FA82F252B101FA02F3C8
:10023C00C2F1200120FA01F10CFA02FC41EA030898
:10024C0094404FEA1C45210CB8FBF5FE1FFA8CF7C5
:10025C0005FB1E8341EA03430EFB07F199420BD9C0
:10026C001CEB03030EF1FF3080F01E81994240F22B
:10027C001B81AEF1020E63445B1AA4B2B3FBF5F022
:10028C0005FB103344EA034400FB07F7A7420AD9E5
:10029C001CEB040400F1FF3380F00881A74240F20C
:1002AC00058164440238E41B40EA0E4000211EB173
:1002BC00D4400023C6E90043BDE8F0878B4208D93F
:1002CC00002E00F0EE800021C6E900050846BDE8CE
:1002DC00F087B3FA83F100294AD1AB4202D38242B0
:1002EC0000F2F980841A65EB030301209846002E76
:1002FC00E2D0C6E90048DFE702B9FFDEB2FA82F2CB
:10030C00002A40F09180A1EB0C054FEA1C471FFA24
:10031C008CFE0121B5FBF7F307FB1350250C45EAC6
:10032C0000450EFB03F0A84208D91CEB050503F1B0
:10033C00FF3802D2A84200F2CB8043462D1AA4B259
:10034C00B5FBF7F007FB105544EA05440EFB00FE25
:10035C00A64508D91CEB040400F1FF3502D2A645D2
:10036C0000F2BB802846A4EB0E0440EA03409EE753
:10037C00C1F120078B4022FA07FC4CEA030C20FA4F
:10038C0007F405FA01F31C43FD404FEA1C4900FA3F
:10039C0001F3B5FBF9F8200C1FFA8CFE09FB18557C
:1003AC0040EA054508FB0EF0A84202FA01F20BD90F
:1003BC001CEB050508F1FF3A80F08880A84240F25A
:1003CC008580A8F1020865442D1AA4B2B5FBF9F09A
:1003DC0009FB105544EA054500FB0EFEAE4508D955
:1003EC001CEB050500F1FF346CD2AE456AD902381E
:1003FC00654440EA0840A0FB0294A5EB0E05A5421B
:10040C00C846A64656D353D05EB1B3EB080265EB93
:10041C000E0505FA07F722FA01F3CD401F43C6E992
:10042C0000750021BDE8F087C2F1200320FA03F12A
:10043C000CFA02FC25FA03F395400D434FEA1C47D6
:10044C001FFA8CFEB3FBF7F107FB11302B0C43EAC0
:10045C00004301FB0EF0984204FA02F408D91CEB9D
:10046C00030301F1FF382FD298422DD9023963448E
:10047C001B1AADB2B3FBF7F007FB103345EA03458B
:10048C0000FB0EF3AB4208D91CEB050500F1FF385D
:10049C0016D2AB4214D902386544ED1A40EA014138
:1004AC0038E73146304607E78646E5E61846FAE671
:1004BC004B45A9D2B9EB020864EB0C0E0138A3E74B
:1004CC004046EAE7204694E74146D1E7D0467BE731
:1004DC00023B654432E7084609E76444023842E7C8
:1004EC00704700BF10B504460E4B18784FF47A7362
:1004FC00B3FBF0F30C4A1068B0FBF3F000F0AEF86D
:10050C0068B90F2C01D901200AE0002221464FF0D6
:10051C00FF3000F04BF8054B1C60002000E0012080
:10052C0010BD00BF000000200800002004000020C7
:10053C0008B50B4B1A6842F400721A601A6842F440
:10054C0080621A601A6842F480721A60032000F00C
:10055C001BF80F20FFF7C6FF02F0A6F9002008BD1C
:10056C00003C0240034A1168034B1B780B44136098
:10057C00704700BF5804002000000020014B186891
:10058C00704700BF58040020074AD36823F4E06387
:10059C001B041B0C000200F4E060034343F0BF6338
:1005AC0043F40033D360704700ED00E000B5194B05
:1005BC00DB68C3F30223C3F1070CBCF1040F28BFA3
:1005CC004FF0040C03F1040EBEF1060F18D9033BD7
:1005DC004FF0FF3E0EFA0CFC21EA0C0199400EFA8A
:1005EC0003F322EA0303194300280BDB0901C9B208
:1005FC0000F1604000F5614080F800135DF804FBE9
:10060C000023E5E700F00F000901C9B2024B1954B1
:10061C00F4E700BF00ED00E014ED00E0002807DB7C
:10062C0000F01F02400901239340024A42F8203097
:10063C00704700BF00E100E000280CDB00F01F0257
:10064C004009012393402030034A42F82030BFF385
:10065C004F8FBFF36F8F704700E100E00138B0F1AE
:10066C00807F0BD24FF0E0235861054AF02182F8CD
:10067C0023100020986107221A61704701207047EF
:10068C0000ED00E030B405682C6824F480242C6064
:10069C00046863608368402B05D003689960036825
:1006AC00DA6030BC704703689A600368D960F8E779
:1006BC0010B40368D9B210390B4AA2FB01421209DB
:1006CC000A4CA25CC2655F2908D923F47F7323F01E
:1006DC00030304338365806D10BC704723F47F7370
:1006EC0023F003038365F6E7ABAAAAAA303200080D
:1006FC00836A826992B9012B0AD0022B02D00BB10A
:10070C0000207047C36A13F0807F28D10020704707
:10071C00C36AB3F1C07F24D000207047B2F5005FEC
:10072C0009D0022B25D9032B25D1C36A13F0807F66
:10073C0023D100207047032B03D8DFE803F0140407
:10074C00140A00207047C36A13F0807F0DD100207B
:10075C007047C36AB3F1C07F09D0002070470120F5
:10076C00704701207047012070470120704701201D
:10077C00704701207047002070470120704700002F
:10078C0070B50446FFF7FAFE002C5BD00546022339
:10079C0084F83530002384F834302268136823F051
:1007AC000103136023681A6812F0010F0AD0FFF7D7
:1007BC00E5FE431B052BF5D920236365032084F844
:1007CC00350070BD1A68204810406168A2680A4361
:1007DC00E1680A4321690A4361690A43A1690A4332
:1007EC00E1690A43216A0A430243616A04291ED063
:1007FC001A602668756925F00705636A1D43042B8A
:10080C0007D1A36A1D43E36A1BB12046FFF770FFB3
:10081C0090B975612046FFF74BFFE26D3F23934083
:10082C00836000206065012384F83530C9E7E16AF4
:10083C00206B01430A43DBE740236365012084F806
:10084C003500BEE70120BCE73F8010F038B5044608
:10085C00856D90F8340001282BD0012084F83400E9
:10086C0094F83500C0B2012804D0002384F8343049
:10087C00022038BD022084F8350000206065204637
:10088C00FFF700FFE26D3F239340AB6022681368D3
:10089C0043F016031360236C23B12268136843F0F2
:1008AC00080313602268136843F0010313600020EF
:1008BC00DFE70220DDE770B50446866DFFF75EFECC
:1008CC0094F83530DBB2022B06D08023636500230D
:1008DC0084F83430012070BD05462268136823F07B
:1008EC00160313602268536923F080035361236C51
:1008FC00E3B12268136823F00803136022681368BD
:10090C0023F00103136023681B6813F0010F11D04F
:10091C00FFF734FE431B052BF5D920236365032019
:10092C0084F83500002384F83430D4E7A36C002B12
:10093C00DFD1E3E7E26D3F239340B360012384F8FA
:10094C003530002084F83400C5E790F83530DBB240
:10095C00022B03D08023436501207047052380F8C8
:10096C0035300268136823F00103136000207047D0
:10097C00F0B583B0044600230193724B1D68724B93
:10098C00A3FB0535AD0A876D3E68C26D0823934005
:10099C00334210D003681A6812F0040F0BD01A6897
:1009AC0022F004021A60C26D08239340BB60436DB1
:1009BC0043F001034365E26D01239340334209D0B8
:1009CC002268526912F0800F04D0BB60636D43F053
:1009DC0002036365E26D04239340334209D022681D
:1009EC00126812F0020F04D0BB60636D43F0040375
:1009FC006365E26D10239340334224D02268126861
:100A0C0012F0080F1FD0BB6023681A6812F4802FF5
:100A1C000DD01B6813F4002F04D1236C9BB120461E
:100A2C00984710E0A36C73B1204698470BE01A6806
:100A3C0012F4807F03D11A6822F008021A60236C2A
:100A4C000BB120469847E26D20239340334255D09A
:100A5C002268126812F0100F50D0BB6094F8353039
:100A6C00DBB2052B0ED023681A6812F4802F33D01A
:100A7C001B6813F4002F2AD1636C002B3ED0204648
:100A8C0098473BE02268136823F016031360226832
:100A9C00536923F080035361236CA3B1226813685C
:100AAC0023F008031360E26D3F239340BB600123E6
:100ABC0084F83530002384F83430236D002B3FD07C
:100ACC00204698473CE0A36C002BE7D1EBE7E36BA7
:100ADC00A3B12046984711E01A6812F4807F09D11F
:100AEC001A6822F010021A60012384F835300023B2
:100AFC0084F83430E36B0BB120469847636DFBB13F
:100B0C00636D13F0010F17D0052384F8353022687C
:100B1C00136823F001031360019B01330193AB4273
:100B2C0004D823681B6813F0010FF5D1012384F856
:100B3C003530002384F83430E36C0BB120469847F1
:100B4C0003B0F0BD08000020B5814E1B00230F2B15
:100B5C0000F2F18070B582B061E085685E0003241C
:100B6C00B44025EA0405CC68B4402C438460456845
:100B7C0025EA02054C68C4F300129A402A434260ED
:100B8C005BE0DC08083450F8246003F007029500A1
:100B9C000F22AA4026EA020E0A69AA4042EA0E0275
:100BAC0040F824205DE0092200E0002202FA0EF257
:100BBC002A430234604D45F82420604A94686FEA59
:100BCC000C0224EA0C054E6816F4801F01D04CEA86
:100BDC0004055A4CA560E46802EA04054E6816F454
:100BEC00001F01D04CEA0405544CE560646802EA2D
:100BFC0004054E6816F4003F01D04CEA04054F4C36
:100C0C006560246822404D6815F4803F01D04CEAA1
:100C1C0004024A4C226001330F2B00F28A8001221D
:100C2C009A400C6804EA020C32EA0404F3D14C68D2
:100C3C0004F00304013C012C8FD94A6802F0030232
:100C4C00032A09D0C4685D000322AA4024EA0204E6
:100C5C008A68AA402243C2604A6802F00302022A50
:100C6C008FD004684FEA430E032202FA0EF224EAF4
:100C7C0002044A6802F0030202FA0EF222430260F6
:100C8C004A6812F4403FC6D0002201922C4A546CA0
:100C9C0044F480445464526C02F480420192019AF0
:100CAC009C08A51C244A52F8255003F003024FEA75
:100CBC00820E0F2202FA0EF225EA0205214A904218
:100CCC003FF473AF02F58062904222D002F580624D
:100CDC00904220D002F5806290421ED002F58062D4
:100CEC0090421CD002F5806290421AD002F58062CC
:100CFC00904218D002F58062904216D002F58062C4
:100D0C00904214D002F5806290423FF44CAF0A221C
:100D1C004CE701224AE7022248E7032246E7042275
:100D2C0044E7052242E7062240E707223EE7082275
:100D3C003CE702B070BD704700380140003C0140F8
:100D4C0000380240000002400AB18161704709047A
:100D5C008161704708B5054B5B69034200D108BD42
:100D6C00024B586102F08EF8F9E700BF003C0140DD
:100D7C0010B582B000230193194B1A6C42F08052CB
:100D8C001A641B6C03F080530193019B154B0122D9
:100D9C001A64FFF7F3FB0446134B5B6813F4803FB4
:100DAC0008D1FFF7EBFB001BB0F57A7FF4D90320D9
:100DBC0002B010BD0B4B01225A64FFF7DFFB044657
:100DCC00094B5B6813F4003F07D1FFF7D7FB001BFF
:100DDC00B0F57A7FF4D90320EAE70020E8E700BFFA
:100DEC000038024000000E4200700040002800F065
:100DFC00E08170B582B00446036813F0010F3BD05C
:100E0C009F4B9B6803F00C03042B2CD09C4B9B68D2
:100E1C0003F00C03082B21D06368B3F5803F4FD04F
:100E2C00B3F5A02F52D0964B1A6822F480321A6078
:100E3C001A6822F480221A606368002B50D0FFF7E6
:100E4C009DFB05468E4B1B6813F4003F14D1FFF736
:100E5C0095FB401B6428F5D90320B1E1884B5B68F6
:100E6C0013F4800FD8D0864B1B6813F4003F03D0CB
:100E7C006368002B00F09F81236813F0020F54D09D
:100E8C007F4B9B6813F00C0F3ED07D4B9B6803F09F
:100E9C000C03082B33D0E368002B68D0794B01226C
:100EAC001A60FFF76BFB0546754B1B6813F0020FBE
:100EBC0054D1FFF763FB401B0228F5D903207FE1D7
:100ECC006F4A136843F480331360B5E76C4B1A68B0
:100EDC0042F480221A601A6842F480321A60ABE73E
:100EEC00FFF74CFB0546664B1B6813F4003FC3D061
:100EFC00FFF744FB401B6428F5D9032060E1604BED
:100F0C005B6813F4800FC6D15D4B1B6813F0020FA6
:100F1C0003D0E368012B40F05081594A136823F049
:100F2C00F803216943EAC1031360236813F0080F27
:100F3C0042D063696BB3534B0122C3F8802EFFF789
:100F4C001DFB05464E4B5B6F13F0020F34D1FFF7C0
:100F5C0015FB401B0228F5D9032031E1484A1368E0
:100F6C0023F0F803216943EAC1031360DDE7454B25
:100F7C0000221A60FFF702FB0546414B1B6813F079
:100F8C00020FD2D0FFF7FAFA401B0228F5D9032042
:100F9C0016E13C4B0022C3F8802EFFF7EFFA054612
:100FAC00374B5B6F13F0020F06D0FFF7E7FA401BCD
:100FBC000228F5D9032003E1236813F0040F77D03E
:100FCC002F4B1B6C13F0805F33D1002301932C4B00
:100FDC001A6C42F080521A641B6C03F0805301931C
:100FEC00019B0125284B1B6813F4807F23D0A36839
:100FFC00012B34D0052B38D0214B1A6F22F0010273
:10100C001A671A6F22F004021A67A368002B3DD0EE
:10101C00FFF7B4FA06461A4B1B6F13F0020F46D1BA
:10102C00FFF7ACFA801B41F288339842F3D90320C6
:10103C00C6E00025D6E7144A136843F480731360A6
:10104C00FFF79CFA0646104B1B6813F4807FCED139
:10105C00FFF794FA801B0228F5D90320B0E0084A68
:10106C00136F43F001031367CFE7054B1A6F42F080
:10107C0004021A671A6F42F001021A67C5E700BF33
:10108C00003802400000474200700040FFF776FA3B
:10109C000646524B1B6F13F0020F08D0FFF76EFA87
:1010AC00801B41F288339842F3D9032088E0EDB9D4
:1010BC00A369002B00F08380484A926802F00C026E
:1010CC00082A51D0022B17D0454B00221A66FFF785
:1010DC0055FA0446414B1B6813F0007F42D0FFF7D2
:1010EC004DFA001B0228F5D9032069E03B4A136C2A
:1010FC0023F080531364DBE7394B00221A66FFF7A9
:10110C003DFA0546354B1B6813F0007F06D0FFF700
:10111C0035FA401B0228F5D9032051E0E369226A15
:10112C001343626A43EA8213A26A5208013A43EA01
:10113C000243E26A43EA0263284A5360284B0122C5
:10114C001A66FFF71BFA0446244B1B6813F0007F4A
:10115C0006D1FFF713FA001B0228F5D903202FE064
:10116C0000202DE000202BE0012B2BD01B4B5B68CB
:10117C0003F48001E269914226D103F03F02216A17
:10118C008A4223D1616A47F6C0721A40B2EB811FC2
:10119C001ED103F44031A26A5208013AB1EB024F5E
:1011AC0018D103F07063E26AB3EB026F14D1002024
:1011BC0006E001207047012002E0012000E0002041
:1011CC0002B070BD0120FBE70120F9E70120F7E731
:1011DC000120F5E70120F3E70120F1E70038024098
:1011EC000000474208B5314B9B6803F00C03042BFD
:1011FC0057D0082B57D12D4B5A6802F03F025B6831
:10120C0013F4800F2AD0294B5968C1F3881C4FEA7C
:10121C004C11B1EB0C006EEB0E0E4FEA8E1343EA41
:10122C0090638101091A63EB0E03DB0043EA5173EF
:10123C00C90011EB0C0C43F10003590200234FEAD7
:10124C004C2041EADC51FEF7CBFF184B5B68C3F333
:10125C00014301335B00B0FBF3F025E0134B5968FD
:10126C00C1F3881C4FEA4C11B1EB0C006EEB0E0E67
:10127C004FEA8E1343EA90638101091A63EB0E0364
:10128C00DB0043EA5173C90011EB0C0C43F1000372
:10129C00990200234FEA8C2041EA9C51FEF7A0FFF3
:1012AC00D3E7034800E0034808BD00BF0038024004
:1012BC0000127A000024F400002800F09B8070B526
:1012CC000D4604464F4B1B6803F00F038B4208D2AC
:1012DC00CBB24C4A1370136803F00F038B4240F0EF
:1012EC008B80236813F0020F17D013F0040F04D077
:1012FC00454A936843F4E0539360236813F0080F56
:10130C0004D0414A936843F4604393603E4A936827
:10131C0023F0F003A1680B439360236813F0010FD3
:10132C0032D06368012B21D09A1E012A25D9364A66
:10133C00126812F0020F61D033498A6822F003025E
:10134C0013438B60FFF71AF906462F4B9B6803F08B
:10135C000C036268B3EB820F16D0FFF70FF9801BFA
:10136C0041F288339842F0D9032042E0264A1268B1
:10137C0012F4003FE0D101203BE0234A126812F046
:10138C00007FD9D1012034E01E4B1B6803F00F0302
:10139C00AB4207D9EAB21B4B1A701B6803F00F0360
:1013AC00AB422DD1236813F0040F06D0164A936874
:1013BC0023F4E053E1680B439360236813F0080FA8
:1013CC0007D0114A936823F46043216943EAC103AF
:1013DC009360FFF707FF0C4B9B68C3F303130B4A97
:1013EC00D35CD8400A4B18600A4B1868FFF77AF8A0
:1013FC00002070BD012070470120FAE70120F8E7BA
:10140C000120F6E7003C0240003802404032000860
:10141C000800002004000020014B1868704700BF32
:10142C000800002008B5FFF7F7FF044B9B68C3F3D7
:10143C008223034AD35CD84008BD00BF0038024069
:10144C005032000808B5FFF7E7FF044B9B68C3F365
:10145C004233034AD35CD84008BD00BF0038024079
:10146C005032000830B4036A23F001030362036AAC
:10147C004268846924F073040D682C4323F0020C39
:10148C008B6843EA0C03104DA84203D005F5806528
:10149C00A84205D123F00803CD682B4323F00403A5
:1014AC00094DA84203D005F58065A84205D122F468
:1014BC0040724D692A438D692A43426084614A68AF
:1014CC004263036230BC70470000014030B4036AD1
:1014DC0023F480730362036A4268C46924F0730CBA
:1014EC000C6844EA0C0523F400738C6843EA04236B
:1014FC00114CA04203D004F58064A04206D123F421
:10150C000063CC6843EA042323F480630A4CA042B2
:10151C0003D004F58064A04207D122F440524C69F8
:10152C0042EA04128C6942EA04124260C5614A68BC
:10153C00C263036230BC70470000014030B4036AE0
:10154C0023F480530362036A4468C26922F4E642BE
:10155C000D6842EA052223F400538D6843EA0533F3
:10156C00094DA84203D005F58065A84204D124F4A6
:10157C0080444D6944EA85144460C2614A6802643F
:10158C00036230BC704700BF0000014010B4036A16
:10159C00046A24F001040462846924F0F00C4CEA1F
:1015AC00021223F00A030B438261036210BC7047E2
:1015BC0010B4046A24F0100404628469036A24F4ED
:1015CC00704C4CEA023223F0A00343EA011382610F
:1015DC00036210BC7047836823F070030B4343F025
:1015EC00070383607047000090F83D30DBB2012B9D
:1015FC0037D1022380F83D300268D36843F00103F1
:10160C00D3600368194A934220D0B3F1804F1DD0A8
:10161C00A2F57C42934219D002F58062934215D018
:10162C0002F58062934211D002F5784293420DD0BC
:10163C0002F57052934209D0A2F59432934205D030
:10164C001A6842F001021A60002070479A6802F092
:10165C000702062A07D01A6842F001021A6000201D
:10166C007047012070470020704700BF0000014008
:10167C000268D36823F00103D3600368196A41F24E
:10168C001112114208D1196A40F24442114203D19D
:10169C001A6822F001021A60012380F83D30002004
:1016AC0070477047704770477047704710B50446D5
:1016BC0003681A6912F0020F11D0DA6812F0020FE7
:1016CC000DD06FF002021A610123037703689B6946
:1016DC0013F0030F70D0FFF7E6FF00232377236886
:1016EC001A6912F0040F12D0DA6812F0040F0ED03F
:1016FC006FF004021A610223237723689B6913F4A9
:10170C00407F5FD02046FFF7CEFF0023237723686E
:10171C001A6912F0080F12D0DA6812F0080F0ED006
:10172C006FF008021A61042323772368DB6913F036
:10173C00030F4ED02046FFF7B6FF00232377236814
:10174C001A6912F0100F12D0DA6812F0100F0ED0C6
:10175C006FF010021A61082323772368DB6913F4F6
:10176C00407F3DD02046FFF79EFF00232377236860
:10177C001A6912F0010F03D0DA6812F0010F36D19A
:10178C0023681A6912F0800F03D0DA6812F0800F08
:10179C0034D123681A6912F0400F03D0DA6812F0C2
:1017AC00400F32D123681A6912F0200F03D0DA6887
:1017BC0012F0200F30D110BDFFF774FF2046FFF759
:1017CC0073FF8AE72046FFF76DFF2046FFF76CFF9B
:1017DC009BE72046FFF766FF2046FFF765FFACE767
:1017EC002046FFF75FFF2046FFF75EFFBDE76FF077
:1017FC0001021A61204601F06BFBC1E76FF0800219
:10180C001A61204600F0D5FAC3E76FF040021A6166
:10181C002046FFF74AFFC5E76FF020021A61204609
:10182C0000F0C6FAC7E700000368304A904212D0B5
:10183C00B0F1804F0FD0A2F57C4290420BD002F554
:10184C008062904207D002F58062904203D002F58C
:10185C007842904203D123F070034A681343234A21
:10186C0090422AD0B0F1804F27D0A2F57C42904212
:10187C0023D002F5806290421FD002F58062904224
:10188C001BD002F57842904217D002F5705290426C
:10189C0013D002F5806290420FD002F58062904224
:1018AC000BD0A2F59832904207D002F5806290429C
:1018BC0003D002F58062904203D123F44073CA68CE
:1018CC00134323F080034A69134303608B68C3629C
:1018DC000B688362054B984203D003F580639842F2
:1018EC0001D10B6903630123436170470000014080
:1018FC0040B310B5044690F83D30F3B1022384F8A0
:10190C003D30214651F8040BFFF78EFF012384F87C
:10191C00463084F83E3084F83F3084F8403084F808
:10192C00413084F8423084F8433084F8443084F8F1
:10193C00453084F83D30002010BD80F83C3001F07B
:10194C0073F8DBE70120704740B310B5044690F8FC
:10195C003D30F3B1022384F83D30214651F8040B9D
:10196C00FFF762FF012384F8463084F83E3084F898
:10197C003F3084F8403084F8413084F8423084F8A9
:10198C00433084F8443084F8453084F83D300020EE
:10199C0010BD80F83C30FFF784FEDBE70120704778
:1019AC0030B4036A23F010030362036A446882694B
:1019BC0022F4E6420D6842EA052223F020038D68EA
:1019CC0043EA0513114DA84203D005F58065A842E2
:1019DC0006D123F08003CD6843EA051323F04003BE
:1019EC000A4DA84203D005F58065A84207D124F41E
:1019FC0040644D6944EA85048D6944EA8504446079
:101A0C0082614A688263036230BC70470000014007
:101A1C0038B590F83C30012B66D004460D460123B6
:101A2C0080F83C300C2A5AD8DFE802F00759595993
:101A3C001B5959593059595944000068FFF712FD88
:101A4C002268936943F0080393612268936923F039
:101A5C00040393612268936929690B439361002005
:101A6C003EE00068FFF79CFF2268936943F4006333
:101A7C0093612268936923F480639361226893696C
:101A8C00296943EA01239361002029E00068FFF7EC
:101A9C001DFD2268D36943F00803D3612268D36922
:101AAC0023F00403D3612268D36929690B43D36102
:101ABC00002015E00068FFF741FD2268D36943F46C
:101ACC000063D3612268D36923F48063D3612268F5
:101ADC00D369296943EA0123D361002000E0012086
:101AEC00002384F83C3038BD0220FCE710B4846835
:101AFC0024F47F4C42EA03220A4342EA0C0282603D
:101B0C0010BC704790F83C30012B78D010B50446CF
:101B1C00012380F83C30022380F83D300268936842
:101B2C0023F47F4323F0770393600B68602B4CD036
:101B3C0029D8402B54D00CD9502B22D1CA684968D3
:101B4C000068FFF723FD50212068FFF744FD0020BB
:101B5C0005E0202B0DD009D9302B0AD00120012310
:101B6C0084F83D30002384F83C3010BD0BB1102BB1
:101B7C0005D119462068FFF72EFD0020EFE7012064
:101B8C00EDE70120EBE7B3F5805F34D0B3F5005FF0
:101B9C000CD1CB684A6889680068FFF7A7FF2268F8
:101BAC00936843F4804393600020D8E7702B24D1D2
:101BBC00CB684A6889680068FFF798FF22689368C9
:101BCC0043F0770393600020C9E7CA68496800684E
:101BDC00FFF7EEFC60212068FFF7FDFC0020BEE75C
:101BEC00CA6849680068FFF7D1FC40212068FFF7FC
:101BFC00F2FC0020B3E70020B1E70120AFE70220A0
:101C0C00704701F01F01012303FA01FC036A23EA68
:101C1C000C030362036A02FA01F10B43036270477F
:101C2C0010B504460846002942D194F83E30DBB288
:101C3C00013B18BF0123002B6ED1002851D1022388
:101C4C0084F83E30012201462068FFF7DAFF236852
:101C5C00334A934203D002F58062934203D15A6C0B
:101C6C0042F400425A6423682D4A934249D0B3F19E
:101C7C00804F46D0A2F57C42934242D002F580625E
:101C8C0093423ED002F5806293423AD002F57842FC
:101C9C00934236D002F57052934232D0A2F5943270
:101CAC0093422ED01A6842F001021A60002032E0F2
:101CBC00042908D008290DD094F84130DBB2013B3F
:101CCC0018BF0123B7E794F83F30DBB2013B18BFD4
:101CDC000123B0E794F84030DBB2013B18BF01237D
:101CEC00A9E7042805D0082807D0022384F841303E
:101CFC00A8E7022384F83F30A4E7022384F840309D
:101D0C00A0E79A6802F00702062A07D01A6842F088
:101D1C0001021A60002010BD0120FCE70020FAE748
:101D2C000000014090F83C30012B3CD010B4012352
:101D3C0080F83C30022380F83D3003685A689C6878
:101D4C0022F0700C0A6842EA0C025A600368174AC7
:101D5C0093421AD0B3F1804F17D0A2F57C42934234
:101D6C0013D002F5806293420FD002F58062934249
:101D7C000BD002F57842934207D002F57052934291
:101D8C0003D0A2F59432934204D124F080044A6823
:101D9C0014439C60012380F83D30002380F83C30D4
:101DAC00184610BC70470220704700BF000001406D
:101DBC0070477047026802F10C0353E8003F23F0B0
:101DCC00C0030C3242E800310029F3D1202380F803
:101DDC003D307047026802F10C0353E8003F23F4D6
:101DEC0090730C3242E800310029F3D1026802F101
:101DFC00140353E8003F23F00103143242E800318E
:101E0C000029F3D1036B012B05D0202380F83E3041
:101E1C00002303637047026802F10C0353E8003F90
:101E2C0023F010030C3242E800310029F3D1ECE727
:101E3C0090F83D30DBB2212B01D002207047836833
:101E4C00B3F5805F17D0036A5A1C02621A780368D4
:101E5C005A60C38C9BB2013B9BB2C3844BB90268E2
:101E6C00D36823F08003D3600268D36843F0400347
:101E7C00D360002070470369002BE4D1036A1B88F0
:101E8C000268C3F308035360036A02330362E0E79A
:101E9C0038B504460268136923F44053C1680B43F8
:101EAC00136183680269134342691343C2691A437D
:101EBC000168CB6823F4164323F00C031343CB6067
:101ECC000268536923F4407381690B4353610368BF
:101EDC00314A934206D002F58062934202D0FFF75A
:101EEC00A1FA01E0FFF7AEFAE369B3F5004F29D090
:101EFC000021031849411B1841F10001C90041EAB6
:101F0C005371DB00181863684FEA83024FEA93732E
:101F1C0041F10001FEF764F9204DA5FB0032510997
:101F2C00642303FB11031B013233A5FB03235B0961
:101F3C0003F0F00202EB011203F00F0321681344CB
:101F4C008B6038BD0023021843EB0301121841F1DA
:101F5C000001C90041EA5271D200101841F1000190
:101F6C00626892185B41FEF73BF90C4DA5FB003201
:101F7C005109642303FB1103DB003233A5FB03235C
:101F8C005B095A0002F4F87202EB011203F007032A
:101F9C00216813448B60D4E7001001401F85EB517E
:101FAC002DE9F84305460F4616469946DDF8208084
:101FBC002C68246837EA04030CBF4FF0010C4FF077
:101FCC00000CB4452DD1B8F1FF3FF1D0B8F1000FA2
:101FDC0005D0FEF7D3FAA0EB09004045E8D92A68F2
:101FEC0002F10C0353E8003F23F4D0730C3242E8A7
:101FFC0000310029F3D12A6802F1140353E8003FA1
:10200C0023F00103143242E800310029F3D12023DC
:10201C0085F83D3085F83E30002385F83C300320B0
:10202C0000E00020BDE8F88358B310B5044690F8E2
:10203C003D300BB3242384F83D302268D36823F45D
:10204C000053D3602046FFF723FF2268136923F463
:10205C00904313612268536923F02A035361226869
:10206C00D36843F40053D36000202064202384F809
:10207C003D3084F83E3010BD80F83C3000F0B6FDA9
:10208C00D8E7012070472DE9F04182B01E4690F848
:10209C003D30DBB2202B54D104460D46904600292E
:1020AC0053D0002A53D090F83C30012B51D001234F
:1020BC0080F83C3000230364212380F83D30FEF788
:1020CC005DFA0746A4F82480A4F82680A368B3F52B
:1020DC00805F05D04FF00008002384F83C3012E0FC
:1020EC00236913B14FF00008F6E7A8460025F3E783
:1020FC0038F8023B2268C3F308035360E28C92B2B7
:10210C00013A92B2E284E38C9BB273B100963B46E7
:10211C00002280212046FFF743FFE0B9002DE7D0D5
:10212C0015F8012B23685A60E8E700963B4600221D
:10213C0040212046FFF734FF78B9202384F83D3046
:10214C0000E0022002B0BDE8F0810120FAE7012096
:10215C00F8E70220F6E70320F4E70320F2E700009B
:10216C0038B590F83D30DBB2202B38D1044600292D
:10217C0037D0002A37D090F83C30012B35D00123D2
:10218C0080F83C3001628284C284002505642123DE
:10219C0080F83D30436B1648D863636B1548186460
:1021AC00636B1548D864636B1D6520681346021D6C
:1021BC00606BFEF74BFB23686FF040021A6084F8EB
:1021CC003C50226802F1140353E8003F43F08003B3
:1021DC00143242E800310029F3D1002000E0022043
:1021EC0038BD0120FCE70120FAE70220F8E700BF28
:1021FC000B2200087322000881220008704708B5E2
:10220C000346806B1B681B6813F4807F1AD1002374
:10221C00C384026802F1140353E8003F23F08003E7
:10222C00143242E800310029F3D1026802F10C03A8
:10223C0053E8003F43F040030C3242E800310029E0
:10224C00F3D108BDFFF7DAFFFBE708B50168CA68F0
:10225C0022F04002CA60202280F83D20FFF7CEFF1A
:10226C00002008BD704708B5806BFFF7FBFF08BD69
:10227C007047704710B5846B23685A6994F83D30E9
:10228C00DBB2212B10D023685A6902F0400294F87B
:10229C003E30DBB2222B11D0236C43F010032364AD
:1022AC002046FFF7E6FF10BD02F08002002AEAD0BC
:1022BC000023E3842046FFF77DFDE4E7002AEBD002
:1022CC000023E3852046FFF785FDE5E708B5806B25
:1022DC000023C385C384FFF7CCFF08BD704790F87B
:1022EC003E30DBB2222B67D18368B3F5805F4DD0D3
:1022FC00826AB3F5805F04D0002B54D10369002BA4
:10230C0051D103685B681370836A01338362C38D98
:10231C009BB2013B9BB2C385002B4FD100B583B060
:10232C000268D36823F02003D3600268D36823F4D7
:10233C008073D3600268536923F001035361202337
:10234C0080F83E30036B012B33D10023036302680A
:10235C0002F10C0353E8003F23F010030C3242E867
:10236C0000310029F3D103681A6812F0100F06D05F
:10237C00002201921A6801925B680193019B818D86
:10238C00FFF7ACFF002003B05DF804FB0269002AE4
:10239C00AED1826A03685B68C3F308031380836A57
:1023AC0002338362B3E703685B6803F07F03137047
:1023BC00AAE7FFF75DFFE5E70220704700207047B2
:1023CC0030B583B0044602681368D068516913F0C5
:1023DC000F0505D113F0200F02D010F0200F19D1EA
:1023EC002DB111F0010119D110F4907F16D1216B90
:1023FC0001297DD013F0800F03D010F0800F40F036
:10240C00158113F0400F03D010F0400F40F01281F3
:10241C0003B030BD2046FFF762FFF9E713F0010F60
:10242C0006D010F4807F03D0226C42F001022264AB
:10243C0013F0040F04D019B1226C42F00202226492
:10244C0013F0020F04D019B1226C42F00402226482
:10245C0013F0080F07D010F0200F00D119B1226C27
:10246C0042F008022264226C002AD1D013F0200F13
:10247C0002D010F0200F29D123685B6903F04003D0
:10248C00226C12F0080F00D163B32046FFF7A2FCB8
:10249C0023685B6913F0400F20D0226802F114030B
:1024AC0053E8003F23F04003143242E80031002986
:1024BC00F3D1A36B73B1614A1A65A06BFEF745FAB1
:1024CC000028A5D0A06B036D9847A1E72046FFF725
:1024DC0006FFD1E72046FFF7CCFE99E72046FFF731
:1024EC00C8FE95E72046FFF7C4FE002323648FE760
:1024FC0013F0100F3FF47EAF10F0100F3FF47AAFD3
:10250C00002301931368019353680193019B536952
:10251C0013F0400F50D0A26B13685B689BB2002B7A
:10252C003FF476AFA18D99427FF672AFE385D36904
:10253C00B3F5807F37D0226802F10C0353E8003FDB
:10254C0023F480730C3242E800310029F3D1226865
:10255C0002F1140353E8003F23F00103143242E864
:10256C0000310029F3D1226802F1140353E8003F33
:10257C0023F04003143242E800310029F3D1202328
:10258C0084F83E3000232363226802F10C0353E8E5
:10259C00003F23F010030C3242E800310029F3D144
:1025AC00A06BFEF788F9A18DE38D9BB2C91A89B295
:1025BC002046FFF793FE2BE7A18DE38D9BB2C91A42
:1025CC0089B2E38D9BB2002B3FF422AF00293FF47C
:1025DC001FAF226802F10C0353E8003F23F4907301
:1025EC000C3242E800300028F3D1226802F11403C7
:1025FC0053E8003F23F00103143242E80030002876
:10260C00F3D1202384F83E3000232363226802F1A7
:10261C000C0353E8003F23F010030C3242E8003067
:10262C000028F3D12046FFF759FEF1E62046FFF7CC
:10263C00FFFBEDE62046FFF708FEE9E6D92200088D
:10264C0010B582B0002401940D4B1A6B42F40012A9
:10265C001A631B6B03F400130193019B2246214662
:10266C000D20FDF7A3FF0D20FDF7D8FF22462146D4
:10267C000F20FDF79BFF0F20FDF7D0FF02B010BD20
:10268C0000380240F0B58BB00024059406940794F2
:10269C00089409940194354B1A6B42F080021A632A
:1026AC001A6B02F080020192019A02941A6B42F0AA
:1026BC0004021A631A6B02F004020292029A039447
:1026CC001A6B42F001021A631A6B02F001020392B8
:1026DC00039A04941A6B42F002021A631B6B03F008
:1026EC0002030493049B224E22464FF430413046A1
:1026FC00FEF72AFB042305930694079405A91D48AD
:10270C00FEF724FA06230593069407941A4F05A99D
:10271C003846FEF71BFA402305934FF444130693F7
:10272C000225079505A93846FEF710FA4FF44053D9
:10273C000593012706970795089405A93046FEF7DF
:10274C0005FA4FF40043059306970794089405A9DE
:10275C003046FEF7FBF9224629461720FDF726FFE7
:10276C001720FDF75BFF0BB0F0BD00BF0038024037
:10277C0000040240000802400000024008B572B696
:10278C004FF0FF33062202490248FFF77CFCF7E7C3
:10279C00383200081806002000B595B03022002110
:1027AC0008A800F071FC002303930493059306938F
:1027BC0007930193224A116C41F080511164126C01
:1027CC0002F080520192019A02931E4B1A6842F455
:1027DC0040421A601B6803F440430293029B01239E
:1027EC0008934FF48033099302220E924FF4800326
:1027FC000F9304231093B42111911292139308A8F0
:10280C00FEF7F4FAB0B9FEF7B3FAA8B90F230393A5
:10281C0002230493002305934FF4A05306934FF423
:10282C0080530793052103A8FEF746FD30B915B078
:10283C005DF804FBFFF7A2FFFFF7A0FFFFF79EFF79
:10284C00003802400070004008B5FDF771FEFFF73C
:10285C00A3FFFFF717FFFFF7F3FE00F093F900F06B
:10286C00ABF900F053F900F06FF800F0A5F800F0A8
:10287C004DFB00F0CFFB00F05DFB084B1B78002BF1
:10288C00FBD0074C607800F09BFB092221460548E1
:10289C00FFF766FC014B00221A70EEE75C04002087
:1028AC00740400205C06002082B0002100910B4BC8
:1028BC005A6C42F480425A645A6C02F48042009280
:1028CC00009A01911A6C42F080521A641B6C03F04E
:1028DC0080530193019B02B0704700BF0038024047
:1028EC00FEE7FEE7FEE7FEE7FEE77047704770473E
:1028FC0008B5FDF737FE08BD08B50248FEF738F8F5
:10290C0008BD00BF5805002008B50248FEF730F896
:10291C0008BD00BFB805002008B54020FEF71AFA24
:10292C0008BD000008B50248FEF7C0FE08BD00BF98
:10293C001005002008B50248FFF742FD08BD00BF96
:10294C005C0600207047000000B587B0002302939E
:10295C00039304930593009301931548154A026061
:10296C005922426083604FF6FF72C260036180237C
:10297C008361FEF7BDFF90B94FF48053029302A917
:10298C000B48FFF7BFF868B9002300930193694621
:10299C000748FFF7C7F940B907B05DF804FBFFF72C
:1029AC00EDFEE9E7FFF7EAFEEEE7FFF7E7FEF3E7F8
:1029BC00C80400200004004000B587B00023029337
:1029CC00039304930593009301931548154A0260F1
:1029DC005922426083604F22C2600361802383616D
:1029EC00FEF786FF90B94FF48053029302A90C486E
:1029FC00FFF788F868B900230093019369460848EB
:102A0C00FFF790F940B907B05DF804FBFFF7B6FE8D
:102A1C00E9E7FFF7B3FEEEE7FFF7B0FEF3E700BF21
:102A2C00100500200008004000B585B003681D4A61
:102A3C00934208D01C4A934212D01C4A934223D092
:102A4C0005B05DF804FB00230193194B1A6C42F09E
:102A5C0002021A641B6C03F002030193019BEFE763
:102A6C0000210291124B1A6C42F004021A641B6C86
:102A7C0003F004030293029B0A461E20FDF796FD09
:102A8C001E20FDF7CBFDDBE700230393084B1A6CEC
:102A9C0042F480721A641B6C03F480730393039BDF
:102AAC00CEE700BF000400400008004000200040BA
:102ABC000038024000B587B00023019302930393C2
:102ACC000493059302680E4B9A4202D007B05DF84E
:102ADC0004FB002300930B4B1A6B42F001021A63A8
:102AEC001B6B03F001030093009B802301930223D3
:102AFC0002930923059301A90348FEF727F8E5E79C
:102B0C0000200040003802400000024000B589B0AF
:102B1C000023019302930393049305930693079365
:102B2C001648174A026059224260836044F61F62BD
:102B3C00C260036180238361FEF7DAFEA0B90F48FF
:102B4C00FEF702FF98B960230193002202920392D0
:102B5C00059201A90948FEF75BFF58B90748FFF732
:102B6C00A9FF09B05DF804FBFFF708FEE7E7FFF7E4
:102B7C0005FEE8E7FFF702FEF0E700BF8004002047
:102B8C000020004008B50A480A4B03604FF4E133BB
:102B9C00436000238360C36003610C224261836144
:102BAC00C361FFF741FA00B908BDFFF7E7FDFBE78A
:102BBC005C060020004C004008B50A480A4B036034
:102BCC004FF4E133436000238360C36003610C2244
:102BDC0042618361C361FFF727FA00B908BDFFF7B3
:102BEC00CDFDFBE7180600200010014030B58BB07E
:102BFC000023059306930793089309930368464AA9
:102C0C00934204D0454A934262D00BB030BD044687
:102C1C0000250195424B1A6C42F400221A641A6C7E
:102C2C0002F400220192019A02951A6B42F00402FE
:102C3C001A631B6B03F004030293029B4FF4406373
:102C4C00059302230693032308930823099305A9EC
:102C5C003448FDF77BFF3448344B03604FF000637E
:102C6C00436040238360C5604FF48063036145611A
:102C7C008561C56105624562FDF782FD10BB2A4B7B
:102C8C0063639C632A482B4B03604FF000634360E3
:102C9C0000238360C3604FF48062026143618361EF
:102CAC00C36103624362FDF76BFD70B9204BA363F4
:102CBC009C63002211463420FDF778FC3420FDF78C
:102CCC00ADFCA2E7FFF75AFDD9E7FFF757FDEDE79B
:102CDC0000210391124B5A6C42F010025A645A6C48
:102CEC0002F010020392039A04911A6B42F0010253
:102CFC001A631B6B03F001030493049B4FF4C06332
:102D0C00059302230693032308930723099305A92C
:102D1C000948FDF71BFF78E7004C0040001001400C
:102D2C000038024000080240B805002070600240E4
:102D3C00580500204060024000000240DFF834D00B
:102D4C000D480E490E4A002302E0D458C4500433F7
:102D5C00C4188C42F9D30B4A0B4C002301E01360CE
:102D6C000432A242FBD3FFF7EDFD00F069F9FFF747
:102D7C006BFD704700000320000000203C04002085
:102D8C00703200083C040020A8060020FEE7002258
:102D9C009446112A30DC30B5845C531C10F803E0E7
:102DAC00630003F0800304F0100543EA85035BB273
:102DBC0004F0040543EAC50304F0010443EA0413D8
:102DCC00DBB24FEADE0404F0080423434FEA9E040E
:102DDC0004F0040423434FEA5E0404F0020423438A
:102DEC000EF0010E43EA0E0301F80C3002320CF126
:102DFC00010C112AD0DD30BD704708B500220A60E5
:102E0C004A600A72FFF7C3FF08BD000070B53C2092
:102E1C0000F086F800261AE0164BD3F8183205207D
:102E2C0000F07EF80134032CF6DD124BD3F8183287
:102E3C00DBB2C3F10103DBB20F498A57AB4013433A
:102E4C008B55013D002D01DB0024ECE70136112EE2
:102E5C0004DC094B00229A550725F3E7074906487D
:102E6C00FFF7CBFF064B00221A701720FDF7D6FB9D
:102E7C0070BD00BF000040426004002074040020BC
:102E8C00A006002010B50F4B1B7813B1012B0FD0EF
:102E9C0010BD0D4BD3F81832002BF9D10B48036839
:102EAC0000225A62FEF7A0FB064B01221A70EFE7D4
:102EBC00064C2046FEF7DCFB226800235362014AD5
:102ECC001370E5E7A006002000004042100500202A
:102EDC000B4B834200D0704710B51C461846FEF7CA
:102EEC00C7FB1720FDF7A8FB236800225A62054B8D
:102EFC0001221A70044B02221A70FFF787FF10BDD3
:102F0C00100500205C040020A0060020034B1A686A
:102F1C00136843F001031360704700BFC80400201E
:102F2C00034B1A6800235362536A8342FCD37047E5
:102F3C00C804002010B5074C00224FF480512046E5
:102F4C00FDF702FF00224FF400512046FDF7FCFE76
:102F5C0010BD00BF0004024010B5074C00224FF416
:102F6C0080512046FDF7F0FE00224FF40051204620
:102F7C00FDF7EAFE10BD00BF0004024010B5074C7F
:102F8C0001224FF480512046FDF7DEFE01224FF462
:102F9C0000512046FDF7D8FE10BD00BF00040240D2
:102FAC0008B5FFF7D9FF00F03FF8FFF7E7FF08BDC2
:102FBC0008B5FFF7D1FF00F03DF8FFF7DFFF08BDC4
:102FCC0008B5413817280FD8DFE800F00F0E0E12A5
:102FDC000E0E0E0E0E0E0E0E0E0E0E0E0E0E0E0E05
:102FEC000E0E0C15FFF7CAFF08BDFFF7D9FFFBE764
:102FFC00FFF7DEFFF8E7FFF7AFFFF5E7014B1B68C4
:10300C00586370478004002008B540F2DC50FFF78D
:10301C00F5FF08BD08B500210248FEF701FEFFF7D9
:10302C00F3FF08BD8004002008B54FF47A70FFF759
:10303C00E5FF08BD08B54FF4FA60FFF7DFFF08BDE8
:10304C0070B50D4E0D4D761BB61006D0002455F8FC
:10305C00043B01349847A642F9D1094E094D761B21
:10306C0000F0D4F8B61006D0002455F8043B013417
:10307C009847A642F9D170BD64320008643200084A
:10308C006C32000864320008830730B548D0541EF7
:10309C00002A3FD0CAB2034601E0013C3AD303F800
:1030AC00012B9D07F9D1032C2DD9CDB245EA05256D
:1030BC000F2C45EA054536D9A4F1100222F00F0C6D
:1030CC0003F1200EE6444FEA121C03F1100242E910
:1030DC00045542E9025510327245F8D10CF1010247
:1030EC0014F00C0F03EB021204F00F0C13D0ACF124
:1030FC00040323F003030433134442F8045B9342A8
:10310C00FBD10CF003042CB1CAB21C4403F8012B04
:10311C009C42FBD130BD64461346002CF4D1F9E738
:10312C0003461446BFE71A46A446E0E7024B13B128
:10313C00024800F005B87047000000005931000843
:10314C00002301461A46184600F01AB838B5084B49
:10315C00084D5B1B9C1007D0043B1D44013C55F8EB
:10316C0004399847002CF9D1BDE8384000F054B828
:10317C00703200086C320008704700BF704700BF07
:10318C002DE9F047DFF87CA00646DAF800009846F7
:10319C000F469146FFF7F0FF1B4B1B68D3F84841D5
:1031AC0024B365681F2D26DC5EB96B1C0235DAF87A
:1031BC000000636044F82570FFF7E0FF0020BDE8D5
:1031CC00F08704EB85010123C1F88890D4F888219D
:1031DC00AB401A43022EC4F88821C1F80881E4D10F
:1031EC00D4F88C211343C4F88C31DEE703F5A674B4
:1031FC00C3F84841D5E7DAF80000FFF7BFFF4FF0FE
:10320C00FF30DCE73804002058320008F8B500BF66
:10321C00F8BC08BC9E467047F8B500BFF8BC08BCAB
:04322C009E46704703
:1032300000061016000610164572726F720A000022
:103240000000000000000000010203040607080956
:0C32500000000000010203041000002038
:08325C00C0CFFF7F010000005C
:0832640039310008D101000816
:04326C00AD010008A8
:1032700001000000100000000024F4000000000025
:1032800000000000FC02002064030020CC030020AA
:10329000000000000000000000000000000000002E
:1032A000000000000000000000000000000000001E
:1032B000000000000000000000000000000000000E
:1032C00000000000000000000000000000000000FE
:1032D00000000000000000000000000000000000EE
:1032E00000000000000000000000000000000000DE
:1032F00000000000000000000000000000000000CE
:1033000000000000000000000000000000000000BD
:1033100000000000000000000000000000000000AD
:10332000000000000000000001000000000000009C
:103330000E33CDAB34126DE6ECDE05000B00000061
:10334000000000000000000000000000000000007D
:10335000000000000000000000000000000000006D
:10336000000000000000000000000000000000005D
:10337000000000000000000000000000000000004D
:0C36A0000000000000000000A406002054
:0400000508002D4979
:00000001FF
